{
  "contractName": "credit_limit",
  "abi": [
    {
      "inputs": [
        {
          "internalType": "uint256",
          "name": "travel",
          "type": "uint256"
        },
        {
          "internalType": "uint256",
          "name": "food",
          "type": "uint256"
        },
        {
          "internalType": "uint256",
          "name": "miscellaneous",
          "type": "uint256"
        }
      ],
      "name": "acl",
      "outputs": [],
      "stateMutability": "nonpayable",
      "type": "function"
    },
    {
      "inputs": [],
      "name": "final_available_credit_limit",
      "outputs": [
        {
          "internalType": "uint256",
          "name": "",
          "type": "uint256"
        }
      ],
      "stateMutability": "view",
      "type": "function"
    }
  ],
  "bytecode": "0x608060405261271060005534801561001657600080fd5b506101ff806100266000396000f3fe608060405234801561001057600080fd5b50600436106100365760003560e01c806308fdd1a41461003b57806350f1ae3c14610059575b600080fd5b610043610075565b60405161005091906100c7565b60405180910390f35b610073600480360381019061006e9190610113565b61007f565b005b6000600154905090565b80828460005461008f9190610195565b6100999190610195565b6100a39190610195565b600181905550505050565b6000819050919050565b6100c1816100ae565b82525050565b60006020820190506100dc60008301846100b8565b92915050565b600080fd5b6100f0816100ae565b81146100fb57600080fd5b50565b60008135905061010d816100e7565b92915050565b60008060006060848603121561012c5761012b6100e2565b5b600061013a868287016100fe565b935050602061014b868287016100fe565b925050604061015c868287016100fe565b9150509250925092565b7f4e487b7100000000000000000000000000000000000000000000000000000000600052601160045260246000fd5b60006101a0826100ae565b91506101ab836100ae565b92508282039050818111156101c3576101c2610166565b5b9291505056fea2646970667358221220dffce550e5a12b826962926848a8a699a4e329a2e19a562fed7ae70115d35bcf64736f6c63430008110033",
  "immutableReferences": {},
  "source": "//Chris Paul BE EXTC 2020201063\r\n// SPDX-License-Identifier: MIT\r\npragma solidity ^0.8.17;\r\ncontract credit_limit \r\n{\r\n    uint given_credit_limit = 10000;\r\n    uint available_credit_limit;\r\n    function acl(uint travel, uint food, uint miscellaneous) public {available_credit_limit = given_credit_limit - travel - food - miscellaneous;}\r\n    function final_available_credit_limit() view public returns(uint){return available_credit_limit;}\r\n}",
  "sourcePath": "C:\\Users\\CHRIS\\OneDrive\\Desktop\\truffletutorial\\New\\contracts\\creditlimit.sol",
  "compiler": {
    "name": "solc",
    "version": "0.8.17+commit.8df45f5f.Emscripten.clang"
  },
  "schemaVersion": "3.4.10",
  "updatedAt": "2022-11-01T09:53:17.492Z",
  "devdoc": {
    "kind": "dev",
    "methods": {},
    "version": 1
  },
  "userdoc": {
    "kind": "user",
    "methods": {},
    "version": 1
  }
}